020090618093400000006942009061620090616                                                                                                                                                                                                             000001
2                                                                      D200906170000000-2118215Debito do Saldo negativo da Prom. Anteru 2021.                                                                                                     000000000000000000000  000002
1000000548084580000004681797391JOSE IVANI DE FREITAS                   20090612000000000000000000000000060000000000000060000000081012000IN10000000000000000000000000000000000000000000000000000000000000000000000000001173300002766342009061600000004478000000540568503  000003
1000000548116911000005441412372FRANCISCO RODRIGUES DOS SANTOS          20090612000000000000000000000000150000000000000150000000081060000IN10090000000000001350000000000000000000000000000000000000000000000013500000012198300002766502009061600000004478000001487847243  000004
1000000548113165000096291613387MARIA FERREIRA DA SILVA                 20090612000000000000000000000000045500000000000045500000081060000IN10090000000000000409500000000000000000000000000000000000000000000017595000012198300002766502009061600000004478000001182091960  000005
1000000548147191000044307217268JOANA DA SILVA COSTA                    20090613000000000000000000000000076000000000000076000000081060000IS10210000000000001596000000000000000000000000000000000000000000000033555000000042600003524202009061600000004478000000528122770  000006
1000000548148848000036112500230MARIA ERMINA DE SOUSA QUADROS           20090613000000000000000000000000076000000000000076000000081060000IS10210000000000001596000000000000000000000000000000000000000000000049515000000042600003524202009061600000004478000001126758652  000007
1000000548147019000029394570268JACIRA DA SILVA FONSECA                 20090613000000000000000000000000110700000000000110700000081060000IS10210000000000002324700000000000000000000000000000000000000000000072762000000042600003524202009061600000004478000001157925356  000008
1000000548047693000047964677420MARIA CONSTANCIA GAIA                   20090611000000000000000000000000200000000000000200000000081060000IS10210000000000004200000000000000000000000000000000000000000000000114762JANEMARLNE00002925522009061600000004478000001051488386  000009
1000000548047790000047964677420MARIA CONSTANCIA GAIA                   20090611000000000000000000000000413000000000000413000000081060000IS10210000000000008673000000000000000000000000000000000000000000000201492JANEMARLNE00002925522009061600000004478000000785347437  000010
1000000548145717000096352043453FRANCISCA MARIA DA SILVA                20090613000000000000000000000000385000000000000385000000081060000IS10210000000000008085000000000000000000000000000000000000000000000282342JANEMARLEN00002925522009061600000004478000001056328506  000011
1000000548075115000075004399387IEDA SANTOS RODRIGUES                   20090612000000000000000000000000149000000000000149000000081060000IS10210000000000003129000000000000000000000000000000000000000000000313632000000000000003903132009061600000004478000001156881002  000012
1000000548152896000013551396353MARIA DO CARMO DA SILVA NASCIMENTO      20090613000000000000000000000000055000000000000055000000081060000IS10210000000000001155000000000000000000000000000000000000000000000325182000rogelia00004611992009061600000004478000001297967140  000013
1000000548126909000028887263353LUCILIA FARIA TAVARES                   20090612000000000000000000000000410000000000000410000000081060000IS10210000000000008610000000000000000000000000000000000000000000000411282000000000000004553422009061600000004478000000844683620  000014
1000000548114960000000273544314JOANA MUNIZ DOS SANTOS                  20090612000000000000000000000000404070000000000404070000081060000IS10210000000000008485500000000000000000000000000000000000000000000496137000000000000004553422009061600000004478000000543144704  000015
1000000548124086000068917546315MARIA TEODORA DE CARVALHO               20090612000000000000000000000000413000000000000413000000081060000IS10210000000000008673000000000000000000000000000000000000000000000582867francilene00001566392009061600000004478000000291106625  000016
1000000548055599000067516157368RAIMUNDO EUGENIO DA SILVA               20090612000000000000000000000000164600000000000164600000081060000IS10210000000000003456600000000000000000000000000000000000000000000617433francilene00001566392009061600000004478000000543514668  000017
1000000548082561000056345054372ANTONIO DE JESUS DA COSTA               20090612000000000000000000000000072000000000000072000000081060000IS10210000000000001512000000000000000000000000000000000000000000000632553000000lino00004073132009061600000004478000000543392392  000018
1000000548126844000000266429300ELIAS CARNEIRO                          20090612000000000000000000000000101000000000000101000000081060000IS10210000000000002121000000000000000000000000000000000000000000000653763FRANCILENE00001566392009061600000004478000000543105377  000019
1000000548114471000087030470320MARIA FRANCISCA PEREIRA                 20090612000000000000000000000000098700000000000098700000081060000IS102100000000000020727000000000000000000000000000000000000000000006744900000AGUIAR00004051082009061600000004478000000543232794  000020
1000000548150133000055084141349RAIMUNDO DA SILVA BARROS                20090613000000000000000000000000101765000000000101765000081060000IS10210000000000002137100000000000000000000000000000000000000000000695861000000000000004553422009061600000004478000000543212092  000021
1000000548084092000065079523387JOSE FERNANDES DA SILVA                 20090612000000000000000000000000164621000000000164621000081060000IS10210000000000003457000000000000000000000000000000000000000000000730431000000000000004553422009061600000004478000001448636946  000022
1000000548130752000026732971204DOMINGOS CELESTINO DOS ANJOS            20090612000000000000000000000000101765000000000101765000081060000IS10210000000000002137100000000000000000000000000000000000000000000751802000000000000004553422009061600000004478000000543377253  000023
1000000548081123000027106020320EMILIANA BRITO DOURADO                  20090612000000000000000000000000377132000000000377132000081060000IS10210000000000007919800000000000000000000000000000000000000000000831000000000000000004553422009061600000004478000000290348650  000024
1000000548129410000078518024315ANTONIO JOSE DA CONCEICAO               20090612000000000000000000000000082200000000000082200000081060000IS10210000000000001726200000000000000000000000000000000000000000000848262FRANCILENE00001566392009061600000004478000001070228980  000025
1000000548067651000057125279368ANTONIO ALVES PEREIRA                   20090612000000000000000000000000235800000000000235800000081060000IS10210000000000004951800000000000000000000000000000000000000000000897780FRANCILENE00001566392009061600000004478000000572592752  000026
1000000548068534000057125279368ANTONIO ALVES PEREIRA                   20090612000000000000000000000000250100000000000250100000081060000IS10210000000000005252100000000000000000000000000000000000000000000950301FRANCILENE00001566392009061600000004478000001455901099  000027
1000000548155453000063985020868AURORA STELA DA CAS                     20090614000000000000000000000000420000000000000420000000081060000IS10210000000000008820000000000000000000000000000000000000000000001038501000000000000004553422009061600000004478000000290927641  000028
1000000548125740000058619046349MARIA DAS DORES DA CONCEICAO            20090612000000000000000000000000071800000000000071800000081060000IS10210000000000001507800000000000000000000000000000000000000000001053579francilene00001566392009061600000004478000001432264238  000029
1000000548128243000058619046349MARIA DAS DORES DA CONCEICAO            20090612000000000000000000000000404000000000000404000000081060000IS10210000000000008484000000000000000000000000000000000000000000001138419FRANCILENE00001566392009061600000004478000000990710750  000030
1000000548124973000015877523368VITORIA FERREIRA BORGES                 20090612000000000000000000000000410000000000000410000000081060000IS10210000000000008610000000000000000000000000000000000000000000001224519000000000000004553422009061600000004478000000840364148  000031
1000000548112460000075539187334JOAO DA CONCEICAO                       20090612000000000000000000000000164520000000000164520000081060000IS10210000000000003454900000000000000000000000000000000000000000001259068000000000000004051082009061600000004478000001049782019  000032
1000000548125856000070087970368TERESINHA MUNIZ E MUNIZ                 20090612000000000000000000000000410000000000000410000000081060000IS10210000000000008610000000000000000000000000000000000000000000001345168000000000000004553422009061600000004478000000844655821  000033
1000000548114293000006388930387ANGELO OLIVEIRA DE ABREU                20090612000000000000000000000000404000000000000404000000081060000IS10210000000000008484000000000000000000000000000000000000000000001430008francilene00001566392009061600000004478000001112160539  000034
1000000548119074000099897644334RAIMUNDO ALVES SOARES                   20090612000000000000000000000000086800000000000086800000081060000IS10210000000000001822800000000000000000000000000000000000000000001448236000000000000004051082009061600000004478000001228876875  000035
1000000548128120000001683346319IZABEL RIBEIRO DA SILVA SOUSA           20090612000000000000000000000000410000000000000410000000081060000IS10210000000000008610000000000000000000000000000000000000000000001534336000000000000004553422009061600000004478000001187632098  000036
1000000548155860000093765649368JOAO BATISTA DOS SANTOS                 20090614000000000000000000000000086500000000000086500000081060000IS10210000000000001816500000000000000000000000000000000000000000001552501valterlins00004613772009061600000004478000001310899280  000037
1000000548126895000061840599391FRANCISCO ARAUJO RODRIGUES              20090612000000000000000000000000417000000000000417000000081060000IS10210000000000008757000000000000000000000000000000000000000000001640071000000042600003524202009061600000004478000001283112091  000038
1000000548123004000067656455353FRANCISCA PEREIRA SANTOS                20090612000000000000000000000000070338000000000070338000081060000IS102100000000000014771000000000000000000000000000000000000000000016548420000AGUIAR00004051082009061600000004478000000922829950  000039
1000000548107343000020614683300LEONIDAS PEREIRA DA SILVA               20090612000000000000000000000000181100000000000181100000081060000IS10210000000000003803100000000000000000000000000000000000000000001692873francilene00001566392009061600000004478000001196481021  000040
1000000548155925000092509118315MIGUEL FERREIRA DE PAIVA                20090614000000000000000000000000070000000000000070000000081060000IS10210000000000001470000000000000000000000000000000000000000000001707573valterlins00004613772009061600000004478000001187395886  000041
1000000548142327000086305034320LUIZA DOS REIS RAMOS                    20090612000000000000000000000000390000000000000390000000081060000IS10210000000000008190000000000000000000000000000000000000000000001789473000000042600003524202009061600000004478000001283110536  000042
1000000548147400000095838791349SEBASTIANA RODRIGUES DE AQUINO ARAUJO   20090613000000000000000000000000116700000000000116700000086060000IS10210000000000002450700000000000000000000000000000000000000000001813980000MARTINS00003524542009061600000004478000000990387496  000043
1000000548155321000005367913504JOILSON GONCALVES DOS SANTOS            20090614000000000000000000000000420000000000000420000000081060000IS10210000000000008820000000000000000000000000000000000000000000001902180000000000000004553422009061600000004478000000285527533  000044
1000000548117136000000403599300FRANCISCA DAS CHAGAS PINTO DE ALMEIDA   20090612000000000000000000000000232000000000000232000000081060000IS10210000000000004872000000000000000000000000000000000000000000001950900FRANCILENE00001566392009061600000004478000001264618910  000045
1000000548145857000006822738487CICERO PEDRO                            20090613000000000000000000000000410000000000000410000000081060000IS10210000000000008610000000000000000000000000000000000000000000002037000000000000000004553422009061600000004478000000402184599  000046
1000000548099049000024821063387JOAO SANTANA ALVES                      20090612000000000000000000000000185573000000000185573000081060000IS1021000000000000389700000000000000000000000000000000000000000000207597000000AGUAR00004051082009061600000004478000001456585492  000047
1000000548114102000001060190311MARIA HELENA PEREIRA DOS SANTOS         20090612000000000000000000000000059862000000000059862000081060000IS10210000000000001257100000000000000000000000000000000000000000002088541000000000000004051082009061600000004478000001292452975  000048
1000000548150567000000678435308MARIA PEREIRA FILHA                     20090613000000000000000000000000061800000000000061800000081060000IS10210000000000001297800000000000000000000000000000000000000000002101519000000lino00004073132009061600000004478000001318125526  000049
1000000548056250000074753690300JOANA CRUZ LIMA                         20090612000000000000000000000000162600000000000162600000081060000IS10210000000000003414600000000000000000000000000000000000000000002135665francilene00001566392009061600000004478000001337099357  000050
1000000548150753000043342850310GERCINA RODRIGUES DE SOUSA              20090613000000000000000000000000160000000000000160000000081060000IS10210000000000003360000000000000000000000000000000000000000000002169265000000lino00004073132009061600000004478000001477807397  000051
1000000548084777000049325671387MARIA DAS GRACAS CAVALCANTE DA SILVA    20090612000000000000000000000000233000000000000233000000086060000IS10210000000000004893000000000000000000000000000000000000000000002218195000MARTINS00003524542009061600000004478000001397799878  000052
1000000548145156000001548533300MARIA CARDOSO CUNHA                     20090612000000000000000000000000385700000000000385700000081060000IS102100000000000080997000000000000000000000000000000000000000000022991920000sidney00003143902009061600000004478000001487278770  000053
1000000548117276000000976362317FRANCISCA SOUSA VIANA                   20090612000000000000000000000000101700000000000101700000081060000IS10210000000000002135700000000000000000000000000000000000000000002320549francilene00001566392009061600000004478000001397781650  000054
1000000548096457000070518378349JOAO BARBOSA LOPES                      20090612000000000000000000000000068800000000000068800000081060000IS102100000000000014448000000000000000000000000000000000000000000023349970000AGUIAR00004051082009061600000004478000001230357413  000055
1000000548145792000099246155300EDNA MARIA SILVA SALAZAR                20090613000000000000000000000000341500000000000341500000081060000IS102100000000000071715000000000000000000000000000000000000000000024067120000sidney00003143902009061600000004478000001314141640  000056
1000000548128480000092071473353MARIA FRANCINEIDE CARVALHO LIMA         20090612000000000000000000000000164621000000000164621000081060000IS102100000000000034570000000000000000000000000000000000000000000024412820000AGUIAR00004051082009061600000004478000001221506665  000057
1000000548154899000003488263380MARIA RAIMUNDA DUTRA                    20090613000000000000000000000000074000000000000074000000081060000IS1021000000000000155400000000000000000000000000000000000000000000245682200000ELDIA00001459192009061600000004478000000561547912  000058
1000000548157243000020545630304FRANCISCO EDUARDO DE RABELO             20090614000000000000000000000000030000000000000030000000081060000IS1021000000000000063000000000000000000000000000000000000000000000246312200000eldia00001459192009061600000004478000001283113756  000059
1000000548155240000033703426349MARIA ELZA ALENCAR DE SOUSA             20090614000000000000000000000000050000000000000050000000081060000IS1021000000000000105000000000000000000000000000000000000000000000247362200000eldia00001459192009061600000004478000000969319037  000060
1000000548157740000098163302372LUIS GONZAGA VALADAO                    20090614000000000000000000000000035000000000000035000000081060000IS1021000000000000073500000000000000000000000000000000000000000000248097200000eldia00001459192009061600000004478000001178269725  000061
1000000548158509000001382005300BENEDITO NASCIMENTO                     20090615000000000000000000000000040000000000000040000000081060000IS1021000000000000084000000000000000000000000000000000000000000000248937200000ELDIA00001459192009061600000004478000001327306473  000062
1000000548154619000091646294300MARIA PLACIDA S DOS SANTOS              20090613000000000000000000000000050000000000000050000000081060000IS1021000000000000105000000000000000000000000000000000000000000000249987200000ELDIA00001459192009061600000004478000001327299213  000063
1000000548053758000001433102323LINDALVA DJANIRA RIBEIRO                20090612000000000000000000000000405000000000000405000000081060000IS1021000000000000850500000000000000000000000000000000000000000000258492200000eldia00001459192009061600000004478000001275178860  000064
1000000548157979000000319853357MARIA FRANCISCA BORGES DA SILVA         20090614000000000000000000000000035000000000000035000000081060000IS1021000000000000073500000000000000000000000000000000000000000000259227200000eldia00001459192009061600000004478000001395703040  000065
1000000548158088000074653253315ZILDA  DOS SANTOS  CUNHA                20090614000000000000000000000000040000000000000040000000081060000IS1021000000000000084000000000000000000000000000000000000000000000260067200000ELDIA00001459192009061600000004478000001327306040  000066
1000000548071675000029091616334MARIA DO NASCIMENTO SILVA GOVEIA        20090612000000000000000000000000385000000000000385000000081060000IN10090000000000003465000000000000000000000000000000000000000000002635322000000982200000204942009061600000004478000000290541700  000067
1000000548086699000003502511349MARIA DOS PRAZERES COELHO MATOS         20090612000000000000000000000000413349000000000413349000081060000IN10090000000000003720100000000000000000000000000000000000000000002672523000001373000000392922009061600000004478000000281781320  000068
1000000548092222000036523461300RAIMUNDO VICENTE CEZARIO                20090612000000000000000000000000075000000000000075000000081060000IN1009000000000000067500000000000000000000000000000000000000000000267927300000BR01000000203972009061600000004478000000476190312  000069
1000000548081530000028084675320MARIA PEREIRA DA SILVA                  20090612000000000000000000000000413300000000000413300000081060000IN100900000000000037197000000000000000000000000000000000000000000027164700pedreiras00003989772009061600000004478000001184755016  000070
1000000548085838000067790550349PEDRO AGOSTINHO DA CONCEICAO            20090612000000000000000000000000073000000000000073000000081060000IN10090000000000000657000000000000000000000000000000000000000000002723040000cod981700000388652009061600000004478000000291160069  000071
1000000548154333000043564917349DOMINGAS BEZERRA DE FRANCA              20090613000000000000000000000000165000000000000165000000081060000IN10090000000000001485000000000000000000000000000000000000000000002737890000001116500000202812009061600000004478000000291203221  000072
1000000548122601000055009263300MARIA DE LURDES DE FRANCA               20090612000000000000000000000000360000000000000360000000081060000IN10090000000000003240000000000000000000000000000000000000000000002770290000000981900000203702009061600000004478000000510974040  000073
1000000548133000000071353887391JOSE OTAVIO DA SILVA                    20090612000000000000000000000000413300000000000413300000081060000IN10090000000000003719700000000000000000000000000000000000000000002807487000001016800001854502009061600000004478000000291031714  000074
1000000548058644000082582530344EDUARDO DA CONCEICAO                    20090612000000000000000000000000160000000000000160000000081060000IN10090000000000001440000000000000000000000000000000000000000000002821887000cod981700000388652009061600000004478000001074361080  000075
1000000548084874000015651088334LUIZ CECILIO  ELIAS DA SILVA            20090612000000000000000000000000400000000000000400000000081060000IN10090000000000003600000000000000000000000000000000000000000000002857887AGFLORIANO00001881312009061600000004478000001113746995  000076
1000000548085862000075561174304FRANCISCA PESCADA DA SILVA              20090612000000000000000000000000164500000000000164500000081060000IN100900000000000014805000000000000000000000000000000000000000000028726920pedreiras00003989772009061600000004478000001134383808  000077
1000000548088276000033128405387EVA MARIA DO ESPIRITO SANTO SILVA       20090612000000000000000000000000300000000000000300000000081060000IN100900000000000027000000000000000000000000000000000000000000000028996920pedreiras00003989772009061600000004478000000572582714  000078
1000000548101817000010369830300VICENTE ROSA DOS SANTOS                 20090612000000000000000000000000053800000000000053800000081060000IN10090000000000000484200000000000000000000000000000000000000000002904534000000982000000202652009061600000004478000001209555600  000079
1000000548088535000087318180304MARIA DA CONCEICAO                      20090612000000000000000000000000217800000000000217800000081060000IN10090000000000001960200000000000000000000000000000000000000000002924136000000982200000204942009061600000004478000001404323101  000080
1000000548118272000014662680344JOSE DOMINGOS PESSOA                    20090612000000000000000000000000073100000000000073100000081060000IN100900000000000006579000000000000000000000000000000000000000000029307150tirirical00000202302009061600000004478000001361383175  000081
1000000548115818000099409607353ALARICO LISBOA                          20090612000000000000000000000000100000000000000100000000081060000IN10090000000000000900000000000000000000000000000000000000000000002939715000001046200000204352009061600000004478000001253904925  000082
1000000548094527000065786831353RAIMUNDO FERREIRA RAMOS                 20090612000000000000000000000000149000000000000149000000086060000IN10090000000000001341000000000000000000000000000000000000000000002953125000000982300000204432009061600000004478000001318886900  000083
1000000548103976000064035344320RAIMUNDO BRITO DE SOUSA                 20090612000000000000000000000000280000000000000280000000081060000IN10090000000000002520000000000000000000000000000000000000000000002978325000SENADOR00000205832009061600000004478000001141216261  000084
1000000548122440000030067472249CELINA VANDA SOUSA SILVA                20090612000000000000000000000000250000000000000250000000086036000IN10050000000000001250000000000000000000000000000000000000000000002990825carutapera00000205082009061600000004478000000572589999  000085
1000000548115249000024871737349BERNARDO DA SILVA LIMA                  20090612000000000000000000000000078000000000000078000000081060000IN10090000000000000702000000000000000000000000000000000000000000002997845000000982700000201682009061600000004478000001109147462  000086
1000000548123349000030346495334IOLANDA SANTOS RAMOS                    20090612000000000000000000000000299300000000000299300000081060000IN10090000000000002693700000000000000000000000000000000000000000003024782000000037900000200872009061600000004478000000504451340  000087
1000000548054533000071292268387CICERO VIEIRA DOS SANTOS                20090612000000000000000000000000158300000000000158300000081060000IN10090000000000001424700000000000000000000000000000000000000000003039029000000982000000202652009061600000004478000001158586814  000088
1000000548125317000048895695372IRACI FONSECA PEREIRA                   20090612000000000000000000000000250000000000000250000000081048000IN10080000000000002000000000000000000000000000000000000000000000003059029000000983000000200952009061600000004478000000510996450  000089
1000000548119520000025226983387MARIA ALVES DE JESUS                    20090612000000000000000000000000389000000000000389000000081060000IN10090000000000003501000000000000000000000000000000000000000000003094039IMPECENTRO00000202062009061600000004478000000945656122  000090
1000000548062919000071766413315FELIPE DA SILVA                         20090612000000000000000000000000413349000000000413349000081060000IN1009000000000000372010000000000000000000000000000000000000000000313124000000timon00000392922009061600000004478000001262080700  000091
1000000548099502000012868906320MARIA TEODORA TRINDADE ALVES            20090612000000000000000000000000413000000000000413000000081060000IN10090000000000003717000000000000000000000000000000000000000000003168410000000037900000200872009061600000004478000001446447240  000092
1000000548143374000067222080368MIGUEL FERNANDES DA SILVA               20090612000000000000000000000000385214000000000385214000081060000IN10090000000000003466900000000000000000000000000000000000000000003203079000001161800000291732009061600000004478000001261738877  000093
1000000548129967000002287882340RAIMUNDO PEREIRA RAMOS                  20090612000000000000000000000000385500000000000385500000081060000IN10090000000000003469500000000000000000000000000000000000000000003237774000formosa00000291902009061600000004478000001374161079  000094
1000000548054193000001284330354RAIMUNDO NONATO DOS SANTOS              20090612000000000000000000000000405000000000000405000000081060000IN1009000000000000364500000000000000000000000000000000000000000000327422400000catia00000204512009061600000004478000001308124691  000095
1000000548066590000093461933368ANGELITA MACHADO DE BRITO               20090612000000000000000000000000072919000000000072919000081060000IN1009000000000000065630000000000000000000000000000000000000000000328078700000timon00000392922009061600000004478000001144359128  000096
1000000548120382000091172381372MARIA APARECIDA CORTEZ DE SOUSA         20090612000000000000000000000000405000000000000405000000081060000IN10090000000000003645000000000000000000000000000000000000000000003317237000000981900000203702009061600000004478000001246472870  000097
1000000548110891000093729596349JOSE PEREIRA SILVA                      20090612000000000000000000000000342000000000000342000000086060000IN10090000000000003078000000000000000000000000000000000000000000003348017000000982300000204432009061600000004478000001362906856  000098
1000000548094888000085414751315RAIMUNDO FERREIRA                       20090612000000000000000000000000312200000000000312200000081048000IN10080000000000002497600000000000000000000000000000000000000000003372993saojoaocar00003724392009061600000004478000001327286480  000099
1000000548109494000036109797200VICENTE LOPES DE CARVALHO               20090612000000000000000000000000099000000000000099000000086060000IN10090000000000000891000000000000000000000000000000000000000000003381903carutapera00000205082009061600000004478000001380274599  000100
1000000548068020000001850764328MARIA MARGARIDA BARROS MOREIRA          20090612000000000000000000000000169726000000000169726000081060000IN1009000000000000152750000000000000000000000000000000000000000000339717800SAOBENTO00001854692009061600000004478000001189254570  000101
1000000548102503000000743915348BERNARDA DOS SANTOS                     20090612000000000000000000000000164082000000000164082000086060000IN10090000000000001476700000000000000000000000000000000000000000003411945000001161700000291302009061600000004478000001226190178  000102
1000000548154457000002202239391ENEDINA SOARES DA SILVA                 20090613000000000000000000000000135000000000000135000000081060000IN10090000000000001215000000000000000000000000000000000000000000003424095000001116500000202812009061600000004478000001433993373  000103
1000000548154678000040182665372ANTONIO ANDRADE DE CASTRO               20090613000000000000000000000000405000000000000405000000081060000IN10090000000000003645000000000000000000000000000000000000000000003460545000001116500000202812009061600000004478000000291195687  000104
1000000548096848000014814765304JOSE RIBAMAR MIRANDA                    20090612000000000000000000000000413300000000000413300000081060000IN10090000000000003719700000000000000000000000000000000000000000003497742000000982800000201412009061600000004478000001457723686  000105
1000000548094209000012773549368RAIMUNDO NONATO DA SILVA                20090612000000000000000000000000250000000000000250000000081060000IN10090000000000002250000000000000000000000000000000000000000000003520242000COD981700000388652009061600000004478000001391658555  000106
1000000548129428000031539416372FRANCISCO GOMES DA SILVA                20090612000000000000000000000000140000000000000140000000081060000IN10090000000000001260000000000000000000000000000000000000000000003532842000000981900000203702009061600000004478000001441119580  000107
1000000548118175000092883257353MARIA FRANCINETE MARTINS                20090612000000000000000000000000417500000000000417500000081060000IN10090000000000003757500000000000000000000000000000000000000000003570417000000982700000201682009061600000004478000001265627603  000108
1000000548084327000094638519334IZAURA MENDES                           20090612000000000000000000000000336000000000000336000000081060000IN10090000000000003024000000000000000000000000000000000000000000003600657000000DINA00000204512009061600000004478000001282286770  000109
1000000548098093000001346322309JENEROSA SOARES ROCHA FREITAS           20090612000000000000000000000000072000000000000072000000081060000IN10090000000000000648000000000000000000000000000000000000000000003607137000senador00000205832009061600000004478000001398483548  000110
1000000546582664000022502203368CANDIDA LIMA BARROS DA SILVA            20090522000000000000000000000000320586000000000320586000084060000IN10090000000000002885300000000000000000000000000000000000000000003635990IMPECENTRO00000202062009061600000004478000001446459761  000111
1000000548143650000031506496334LUIS MATIAS DOS SANTOS                  20090612000000000000000000000000385214000000000385214000081060000IN10090000000000003466900000000000000000000000000000000000000000003670659000001161800000291732009061600000004478000001453964875  000112
1000000548054380000019633939372AFONSO ANGELO COSTA                     20090612000000000000000000000000413300000000000413300000081060000IN1009000000000000371970000000000000000000000000000000000000000000370785600svferrer00003990862009061600000004478000001496789196  000113
1000000548108366000051223864391FRANCISCO XAVIER DA SILVA               20090612000000000000000000000000142831000000000142831000081060000IN10090000000000001285500000000000000000000000000000000000000000003720711000001012700001217622009061600000004478000001444799956  000114
1000000548154546000015729800363MARIA DE LOURDES  SOUSA DA SILVA        20090613000000000000000000000000160000000000000160000000081060000IN10090000000000001440000000000000000000000000000000000000000000003735111000001116500000202812009061600000004478000000476097940  000115
1000000548108773000035482613372FRANCISCO DE ASSIS COSTA                20090612000000000000000000000000700000000000000700000000081048000IN10080000000000005600000000000000000000000000000000000000000000003791111000000982600000202142009061600000004478000005184608148  000116
1000000548099804000001365127397MARIA RAIMUNDA DA SILVA                 20090612000000000000000000000000413040000000000413040000081060000IN10090000000000003717400000000000000000000000000000000000000000003828285000001161700000291302009061600000004478000001377495407  000117
1000000548083762000052993205315MARIA DA CONCEICAO LIMA DA SILVA        20090612000000000000000000000000413300000000000413300000081060000IN100900000000000037197000000000000000000000000000000000000000000038654820pedreiras00003989772009061600000004478000000727626485  000118
1000000548104310000033591024368ANTONIO JUSTINO DA SILVA                20090612000000000000000000000000147000000000000147000000081060000IN10090000000000001323000000000000000000000000000000000000000000003878712000000037200000203382009061600000004478000001460305598  000119
1000000547895623000044401388372MARIA ROSITA BEZERRA ALVES              20090609000000000000000000000000499999000000000499999000081048000IN10080000000000004000000000000000000000000000000000000000000000003918712000pacajus00001217622009061600000004478000001394136401  000120
1000000547896611000044401388372MARIA ROSITA BEZERRA ALVES              20090609000000000000000000000000499999000000000499999000081048000IN10080000000000004000000000000000000000000000000000000000000000003958712000pacajus00001217622009061600000004478000001394136401  000121
1000000547897480000044401388372MARIA ROSITA BEZERRA ALVES              20090609000000000000000000000000499999000000000499999000081048000IN10080000000000004000000000000000000000000000000000000000000000003998712000pacajus00001217622009061600000004478000001394136401  000122
1000000547898819000044401388372MARIA ROSITA BEZERRA ALVES              20090609000000000000000000000000066140000000000066140000081048000IN10080000000000000529100000000000000000000000000000000000000000004004003000pacajus00001217622009061600000004478000001394136401  000123
1000000548119821000002845438370FRANCISCA CARDOSO DOS SANTOS            20090612000000000000000000000000300000000000000300000000086036000IN10050000000000001500000000000000000000000000000000000000000000004019003carutapera00000205082009061600000004478000001501611957  000124
1000000548122016000010351078215PEDRO RODRIGUES DOS SANTOS              20090612000000000000000000000000400000000000000400000000081060000IN10090000000000003600000000000000000000000000000000000000000000004055003000000037500000201682009061600000004478000005340511142  000125
1000000548095620000093412347353SEBASTIANA SILVA DE FREITAS             20090612000000000000000000000000385500000000000385500000081060000IN10090000000000003469500000000000000000000000000000000000000000004089698000000982400000203382009061600000004478000001452972505  000126
1000000548094594000086435752320MARIA SANTANA DA COSTA TEIXEIRA         20090612000000000000000000000000350000000000000350000000081060000IN100900000000000031500000000000000000000000000000000000000000000041211980agsenador00000205832009061600000004478000001086873073  000127
1000000548094390000033790957372MARIA FRANCISCA RODRIGUES DE SOUSA      20090612000000000000000000000000413349000000000413349000081060000IN10090000000000003720100000000000000000000000000000000000000000004158399000001373000000392922009061600000004478000000471563382  000128
1000000548115826000047541431320BENEDITA CONCEICAO SILVA                20090612000000000000000000000000200000000000000200000000081048000IN10080000000000001600000000000000000000000000000000000000000000004174399000000982800000201412009061600000004478000001292463055  000129
1000000548054541000062807790330MARIA APARECIDA OLIVEIRA CABRAL         20090612000000000000000000000000200000000000000200000000086060000IN10090000000000001800000000000000000000000000000000000000000000004192399agcarolina00000204602009061600000004478000001072756290  000130
1000000548110999000069068631349ELIAS NEVES DOS SANTOS                  20090612000000000000000000000000200000000000000200000000081060000IN100900000000000018000000000000000000000000000000000000000000000042103990tirirical00000202302009061600000004478000005350406481  000131
1000000548109346000027099016334IRISMAR LOPES FELIX                     20090612000000000000000000000000090000000000000090000000081060000IN1009000000000000081000000000000000000000000000000000000000000000421849900pinheiro00001854002009061600000004478000000504345737  000132
1000000548091633000090980646391MARIA JOSE DA SILVA OLIVEIRA            20090612000000000000000000000000065000000000000065000000081060000IN10090000000000000585000000000000000000000000000000000000000000004224349000COD981700000388652009061600000004478000001327075781  000133
1000000548105359000000885537360ROSILDA SOARES                          20090612000000000000000000000000385500000000000385500000086060000IN10090000000000003469500000000000000000000000000000000000000000004259044000000982300000204432009061600000004478000001319918384  000134
1000000548107580000030061440310MARIA FRANCISCA RIBEIRO DA SILVA        20090612000000000000000000000000308880000000000308880000081060000IN10090000000000002779900000000000000000000000000000000000000000004286843000001161700000291302009061600000004478000000519634837  000135
1000000548128421000078149061304ROSANGELA DE PAIVA DOS SANTOS           20090612000000000000000000000000139500000000000139500000081060000IN100900000000000012555000000000000000000000000000000000000000000042993980TIRIRICAL00000202302009061600000004478000001067165956  000136
1000000548143366000012538841453JOSE SINFRONIO DE LIMA                  20090612000000000000000000000000164620000000000164620000081060000IS102100000000000034570000000000000000000000000000000000000000000043339680Gilmar01400009732542009061600000004478000000482495707  000137
1000000548097291000039868451434ADALTIVA TEODOMICA DOS SANTOS           20090612000000000000000000000000100957000000000100957000081060000IS10210000000000002120100000000000000000000000000000000000000000004355169000000002100002335282009061600000004478000000912793694  000138
1000000548073791000003804365400ANTONIO BENTO DA SILVA                  20090612000000000000000000000000385513000000000385513000081060000IS10210000000000008095800000000000000000000000000000000000000000004436127000000002100002335282009061600000004478000001145743380  000139
1000000548112967000021417687487JOSE GRIGORIO NETO                      20090612000000000000000000000000032700000000000032700000081060000IS102100000000000006867000000000000000000000000000000000000000000044429940GRACILENE00004179802009061600000004478000001345367403  000140
1000000548054398000069698384472JOSE ANTONIO DA SILVA                   20090612000000000000000000000000163500000000000163500000081060000IS10210000000000003433500000000000000000000000000000000000000000004477329000000003300002755242009061600000004478000001302863972  000141
1000000548149666000079782736449JACIRA VENCESLAU DOS SANTOS             20090613000000000000000000000000103000000000000103000000081060000IS10210000000000002163000000000000000000000000000000000000000000004498959000000007300006216052009061600000004478000001250614659  000142
1000000548079455000019464126434LUIZ FRANCISCO DE SOUZA                 20090612000000000000000000000000055000000000000055000000081060000IS10210000000000001155000000000000000000000000000000000000000000004510509000000003300002755242009061600000004478000001245734544  000143
1000000548142149000022060235472MIGUEL ALVES DA SILVA                   20090612000000000000000000000000118800000000000118800000081060000IS10210000000000002494800000000000000000000000000000000000000000004535457JOSUEAFRAN00009732542009061600000004478000001379087705  000144
1000000548071462000035290595449MARIA LUCINDA DA SILVA                  20090612000000000000000000000000200000000000000200000000081060000IS10210000000000004200000000000000000000000000000000000000000000004577457000000002100002335282009061600000004478000001264927247  000145
1000000548059756000004102721401MARIA DIAS DA CRUZ                      20090612000000000000000000000000173000000000000173000000081060000IS10210000000000003633000000000000000000000000000000000000000000004613787000000003300002755242009061600000004478000001377759200  000146
1000000548052948000079335381420NELI CONCEICAO NASCIMENTO CORDEIRO      20090612000000000000000000000000417500000000000417500000081060000IS10210000000000008767500000000000000000000000000000000000000000004701462000000003300002755242009061600000004478000001482396529  000147
1000000548057389000002316065406IZAULINA MARIA ALVES DA SILVA           20090612000000000000000000000000417500000000000417500000081060000IS10210000000000008767500000000000000000000000000000000000000000004789137000000003300002755242009061600000004478000001302864995  000148
1000000548138133000025787013859EURIDES  MARIA ALVES                    20090612000000000000000000000000051628000000000082370000085060000IS1008000000000000041300000000000000000000000000000000000000000000479326700000gomes00001638302009061600000004478000001304532914  000149
1000000548069140000098616960597JOSE ALVES VIANA                        20090612000000000000000000000000413300000000000413300000081060000IS10210000000000008679300000000000000000000000000000000000000000004880060000000LILA00003998172009061600000004478000001447149928  000150
90001510000000348085610000000048800600000000-2118215                                                                                                                                                                                                000151
