020090618093500000006942009061520090615                                                                                                                                                                                                             000001
2                                                                      C20090616000000006606560Bônus de performance INSS Extra Maio/2009                                                                                                          000000000000000000000  000002
1000000548016054000081097832449MARIA AUXILIADORA SOUZA LIMA            20090610000000000000000000000000140000000000000140000000081060000IN10090000000000001260000000000000000000000000000000000000000000000012600000000059100001881152009061500000004478000001103285030  000003
1000000548048649000096352043453FRANCISCA MARIA DA SILVA                20090611000000000000000000000000413000000000000413000000081060000IS10210000000000008673000000000000000000000000000000000000000000000099330JANEMARLNE00002925522009061500000004478000001477995916  000004
1000000548033323000067989616300GERMANO SIQUEIRA                        20090610000000000000000000000000416043000000000416043000081060000IS10210000000000008736900000000000000000000000000000000000000000000186699000000000000004553422009061500000004478000000572590512  000005
1000000548013462000068565453391JOSE MOREIRA DA SILVA                   20090610000000000000000000000000188900000000000188900000081060000IN80020000000000000377800000000000000000000000000000000000000000000190477000000lino00004073132009061500000004478000000290877636  000006
1000000548011796000078333270344RAIMUNDO PAULO MORAES                   20090610000000000000000000000000069591000000000069591000081060000IS10210000000000001461400000000000000000000000000000000000000000000205091000000000000004051082009061500000004478000000290435277  000007
1000000548024952000040626547334BENEDITA DOS SANTOS SILVA MAGALHAES     20090610000000000000000000000000194000000000000194000000081060000IS10210000000000004074000000000000000000000000000000000000000000000245831FRANCILENE00001566392009061500000004478000000290699029  000008
1000000548043264000040629198349CICERA DE AZEVEDO SILVA                 20090611000000000000000000000000412500000000000412500000081060000IS10210000000000008662500000000000000000000000000000000000000000000332456francilene00001566392009061500000004478000001300377426  000009
1000000548030685000055820956320IZABEL GOMES                            20090610000000000000000000000000344200000000000344200000081060000IS10210000000000007228200000000000000000000000000000000000000000000404738000000000000004553422009061500000004478000000543475387  000010
1000000548031428000004230140304ALMERINDA LUZIA COSTA VIANA             20090610000000000000000000000000410000000000000410000000081060000IS10210000000000008610000000000000000000000000000000000000000000000490838000000000000004553422009061500000004478000000844645621  000011
1000000548021805000035464135391DELZUITA GONCALVES MOREIRA              20090610000000000000000000000000420500000000000420500000081060000IS10210000000000008830500000000000000000000000000000000000000000000579143000000000000004553422009061500000004478000001302556905  000012
1000000548026378000069001642349GRACINDA QUINTA DE OLIVEIRA             20090610000000000000000000000000090570000000000090570000081060000IS10210000000000001902000000000000000000000000000000000000000000000598163000000000000004051082009061500000004478000000561467277  000013
1000000548027420000069001642349GRACINDA QUINTA DE OLIVEIRA             20090610000000000000000000000000096520000000000096520000081060000IS10210000000000002026900000000000000000000000000000000000000000000618432000000000000004051082009061500000004478000000648614387  000014
1000000548030804000014890887334ALICE PEREIRA DOS SANTOS                20090610000000000000000000000000410000000000000410000000081060000IS10210000000000008610000000000000000000000000000000000000000000000704532000000000000004553422009061500000004478000000840383479  000015
1000000548011095000047032529372VITORIO DA SILVA                        20090610000000000000000000000000129583000000000129583000081060000IN80020000000000000259200000000000000000000000000000000000000000000707124000000lino00004073132009061500000004478000001053806610  000016
1000000548029938000068304129353ALCINA MARIA ANDRADE                    20090610000000000000000000000000410000000000000410000000081060000IS10210000000000008610000000000000000000000000000000000000000000000793224000000000000004553422009061500000004478000000846110032  000017
1000000548017956000000582393329FRANCISCA DA SOLIDADE CONCEICAO         20090610000000000000000000000000130000000000000130000000081060000IS10210000000000002730000000000000000000000000000000000000000000000820524000000000000004051082009061500000004478000001276731407  000018
1000000548051771000002091109371OTACILIO MATIAS DE JESUS                20090611000000000000000000000000417500000000000417500000081060000IS1021000000000000876750000000000000000000000000000000000000000000090819900000KEILA00003954982009061500000004478000001358047151  000019
1000000548042411000020597550344RAIMUNDO QUINTINO SILVA                 20090611000000000000000000000000100500000000000100500000086060000IS10210000000000002110500000000000000000000000000000000000000000000929304000MARTINS00003524542009061500000004478000001327025202  000020
1000000548030740000037243705391MARIA DAS DORES DE SOUSA SANTOS         20090605000000000000000000000000099800000000000099800000081060000IS10210000000000002095800000000000000000000000000000000000000000000950262000000lino00004073132009061500000004478000000846161770  000021
1000000548040150000016515641168GERALDO JOSE DA SILVA                   20090611000000000000000000000000410000000000000410000000081060000IS10210000000000008610000000000000000000000000000000000000000000001036362000000000000004553422009061500000004478000000307327000  000022
1000000548016631000001997816300FRANCISCO  BALDEZ DOS SANTOS            20090610000000000000000000000000183800000000000183800000081060000IS10210000000000003859800000000000000000000000000000000000000000001074960000000042600003524202009061500000004478000001430848690  000023
1000000548046093000098161075387BERNARDA MATIAS DOS SANTOS              20090611000000000000000000000000170600000000000170600000081060000IS102100000000000035826000000000000000000000000000000000000000000011107860000AGUIAR00004051082009061500000004478000001308140557  000024
1000000548051402000021360472215ORIMAR BATISTA POLVORA                  20090611000000000000000000000000417500000000000417500000081060000IS1021000000000000876750000000000000000000000000000000000000000000119846100000KEILA00003954982009061500000004478000001484552366  000025
1000000548022160000013217780230MARIA IOLANDA FERREIRA DA SILVA         20090610000000000000000000000000150000000000000150000000081060000IS10210000000000003150000000000000000000000000000000000000000000001229961000000042600003524202009061500000004478000001414211381  000026
1000000548028966000071386688304MARIA DE JESUS SANTOS                   20090610000000000000000000000000317500000000000317500000081060000IS10210000000000006667500000000000000000000000000000000000000000001296636000000000000004051082009061500000004478000000954273435  000027
1000000548029830000071386688304MARIA DE JESUS SANTOS                   20090610000000000000000000000000075540000000000075540000081060000IS10210000000000001586300000000000000000000000000000000000000000001312499000000000000004051082009061500000004478000001371712252  000028
1000000548031053000071386688304MARIA DE JESUS SANTOS                   20090610000000000000000000000000075540000000000075540000081060000IS10210000000000001586300000000000000000000000000000000000000000001328362000000000000004051082009061500000004478000001174511718  000029
1000000548045224000035477342315MARIA DAS GRACAS PINTO NASCIMENTO       20090611000000000000000000000000166414000000000166414000081060000IS102100000000000034947000000000000000000000000000000000000000000013633090000AGUIAR00004051082009061500000004478000001461776284  000030
1000000548030413000072776013353MARIA DAS GRACAS RIBEIRO                20090610000000000000000000000000079000000000000079000000081060000IS10210000000000001659000000000000000000000000000000000000000000001379899francilene00001566392009061500000004478000001404322229  000031
1000000548021724000091767148372MARIA JOSE DAMACENA LIMA                20090610000000000000000000000000095000000000000095000000086060000IS10210000000000001995000000000000000000000000000000000000000000001399849000MARTINS00003524542009061500000004478000001392498730  000032
1000000548044457000000644280360EDILMA DA SILVA OLIVEIRA                20090611000000000000000000000000190000000000000190000000081060000IS10210000000000003990000000000000000000000000000000000000000000001439749valterlins00004613772009061500000004478000001409836964  000033
1000000548012563000012225681287RAIMUNDO DE OLIVEIRA                    20090610000000000000000000000000421500000000000421500000081060000IS10210000000000008851500000000000000000000000000000000000000000001528264000000042600003524202009061500000004478000001440601345  000034
1000000548043337000085049107334NILZA BRITO FERREIRA                    20090611000000000000000000000000228000000000000228000000086060000IS10210000000000004788000000000000000000000000000000000000000000001576144000MARTINS00003524542009061500000004478000001444879747  000035
1000000548040117000029616743449IRENE DOS SANTOS                        20090611000000000000000000000000410000000000000410000000081060000IS10210000000000008610000000000000000000000000000000000000000000001662244000000000000004553422009061500000004478000000282629629  000036
1000000548045950000092807658334MARLUCIA ALVES GALEANA                  20090611000000000000000000000000071834000000000071834000081060000IS102100000000000015085000000000000000000000000000000000000000000016773290000AGUIAR00004051082009061500000004478000001435690920  000037
1000000548010927000085675687300LUIZA RIBEIRO LANOA                     20090610000000000000000000000000179600000000000179600000086060000IN10090000000000001616400000000000000000000000000000000000000000001693493carutapera00000205082009061500000004478000001400002262  000038
1000000548044120000057091714334LEONIZIA FRANCISCA CARDOSO              20090611000000000000000000000000385500000000000385500000081060000IN10090000000000003469500000000000000000000000000000000000000000001728188000turiacu00000201412009061500000004478000000561434140  000039
1000000548044210000057091714334LEONIZIA FRANCISCA CARDOSO              20090611000000000000000000000000413300000000000413300000081060000IN10090000000000003719700000000000000000000000000000000000000000001765385000turiacu00000201412009061500000004478000001397788221  000040
1000000548039364000071534091300MARIA BEATRIZ FRANCO DA SILVA           20090610000000000000000000000000200000000000000200000000081024000IN10020000000000000400000000000000000000000000000000000000000000001769385IMPECENTRO00000202062009061500000004478000001071612520  000041
1000000547990286000040223701300SEBASTIANA MIRANDA CARDOSO              20090610000000000000000000000000200000000000000200000000081036000IN10050000000000001000000000000000000000000000000000000000000000001779385PORTOFRANC00000202222009061500000004478000001144728964  000042
1000000547993480000040223701300SEBASTIANA MIRANDA CARDOSO              20090610000000000000000000000000400000000000000400000000081060000IN10090000000000003600000000000000000000000000000000000000000000001815385PORTOFRANC00000202222009061500000004478000001227836411  000043
1000000548039763000076400654100FRANCISCA BEZERRA DA SILVA              20090610000000000000000000000000410000000000000410000000081060000IN10090000000000003690000000000000000000000000000000000000000000001852285IMPECENTRO00000202062009061500000004478000000526966041  000044
1000000548039682000055119883320ANTONIO RODRIGUES DA SILVA              20090610000000000000000000000000245000000000000245000000081060000IN10090000000000002205000000000000000000000000000000000000000000001874335IMPECENTRO00000202062009061500000004478000001084073886  000045
1000000548047332000008947279315FRANCISCA PAULINA DA SILVA              20090611000000000000000000000000300000000000000300000000081060000IN10090000000000002700000000000000000000000000000000000000000000001901335000NOVAIMP00000202812009061500000004478000000243770146  000046
1000000548017026000086416367300JOAO JOSE FERREIRA                      20090610000000000000000000000000071411000000000071411000081060000IN1009000000000000064270000000000000000000000000000000000000000000190776200pinheiro00001854002009061500000004478000001260749484  000047
1000000548014167000040219178372OSVALDO FERNANDES DE SOUZA              20090610000000000000000000000000500000000000000500000000081060000IN1009000000000000450000000000000000000000000000000000000000000000195276200000BR01000000203972009061500000004478000000243714432  000048
1000000548009325000002210145350FRANCISCO DOS SANTOS RAMOS              20090610000000000000000000000000169250000000000169250000081060000IN1009000000000000152330000000000000000000000000000000000000000000196799500000BREJO00001854422009061500000004478000001483792983  000049
1000000548020582000041800982372IZABEL SILVA FERREIRA                   20090610000000000000000000000000417500000000000417500000081060000IN10090000000000003757500000000000000000000000000000000000000000002005570000000037500000201682009061500000004478000001380260130  000050
1000000548039178000006329160368VALDEMAR DA SILVA RODRIGUES             20090610000000000000000000000000300000000000000300000000081036000IN10050000000000001500000000000000000000000000000000000000000000002020570IMPECENTRO00000202062009061500000004478000000505431661  000051
1000000548039836000017713897372CLEONICE LEITE MAIA                     20090610000000000000000000000001050000000000001050000000081060000IN10090000000000009450000000000000000000000000000000000000000000002115070IMPECENTRO00000202062009061500000004478000001055082740  000052
1000000548047464000040523250100RONALDO ALVES DE SOUZA                  20090611000000000000000000000000410000000000000410000000081060000IN10090000000000003690000000000000000000000000000000000000000000002151970000novaimp00000202812009061500000004478000000990572480  000053
1000000548047596000071098607368MARIA DAS DORES DE SOUSA                20090611000000000000000000000000410000000000000410000000081060000IN10090000000000003690000000000000000000000000000000000000000000002188870000novaimp00000202812009061500000004478000000291198503  000054
1000000548051488000001362552488SIMPLICIO FELIPE NUNES                  20090611000000000000000000000000187000000000000187000000081060000IS102100000000000039270000000000000000000000000000000000000000000022281400LUCIVALDO00001649762009061500000004478000000548643628  000055
1000000548049670000027951359572MARIA DE SOUSA OLIVEIRA                 20090611000000000000000000000000116671000000000116671000081060000IS10210000000000002450100000000000000000000000000000000000000000002252641000josilda00009732542009061500000004478000001118766838  000056
1000000547643845000053116135487ANTONIO FRANCISCO DA SILVA              20090606000000000000000000000000140300000000000140300000081060000IS10210000000000002946300000000000000000000000000000000000000000002282104000000002100002335282009061500000004478000001264926542  000057
1000000547898746000014597152415FRANCISCA VIDAL PINHEIRO                20090609000000000000000000000000301180000000000301180000081060000IS10210000000000006324800000000000000000000000000000000000000000002345352000000002100002335282009061500000004478000001126895820  000058
1000000548034575000069674647449RAIMUNDO ANTONIO DO NASCIMENTO          20090610000000000000000000000000105600000000000105600000081060000IS10210000000000002217600000000000000000000000000000000000000000002367528ElianeOroc00009732542009061500000004478000001379087250  000059
1000000548044740000030309735491JOAO NICODEMOS RODRIGUES                20090611000000000000000000000000200000000000000200000000081060000IS10210000000000004200000000000000000000000000000000000000000000002409528Marleneper00009732542009061500000004478000001383694696  000060
1000000548044040000002918106402BENEDITA LUZIA RODRIGUES                20090611000000000000000000000000160300000000000160300000081060000IS10210000000000003366300000000000000000000000000000000000000000002443191GIVALDOAFR00009732542009061500000004478000001301906678  000061
1000000548045151000080591060310ALFENICE NOGUEIRA ROCHA BRITO           20090611000000000000000000000000213300000000000213300000081060000IS1021000000000000447930000000000000000000000000000000000000000000248798400DONABEBE00009732542009061500000004478000001433428870  000062
1000000548051585000000087183501MARIA DAS CANDEIAS NASCIMENTO           20090611000000000000000000000000070000000000000070000000081060000IS102100000000000014700000000000000000000000000000000000000000000025026840LUCIVALDO00001649762009061500000004478000000927662469  000063
1000000548033641000086960334500ANTONIO MARCAL DOS SANTOS               20090610000000000000000000000000417800000000000417800000081060000IS10210000000000008773800000000000000000000000000000000000000000002590422EdvanioFBA00009732542009061500000004478000001492923980  000064
9000065000000016329147000000002590422000000006606560                                                                                                                                                                                                000065
